:020000040800F2
:1038000008050020E173000897400008994000086F
:103810009B4000089D4000089F40000800000000F9
:10382000000000000000000000000000FD73000820
:10383000A140000800000000A3400008174600084F
:103840000174000805740008097400080D7400086C
:103850001174000815740008197400081D7400081C
:103860002174000825740008297400082D740008CC
:1038700031740008056D000835740008CD6C00082F
:10388000397400083D740008A3450008417400081D
:1038900045740008497400084D7400086F4800081A
:1038A0005174000855740008597400085D740008CC
:1038B000617400087743000865740008356F0008DC
:1038C0003B6F0008416F0008476F000869740008EB
:1038D0006D74000815530008717400082F53000818
:1038E00075740008797400087D74000838B5DB4DE4
:1038F00000F059FA05F13004D8B16069801E022841
:1039000017D800F0A5FA00F043FA90B100F0A0FA41
:1039100000684078A82809D100F09AFA00F0BFFAB0
:1039200000F068FC002100F061FD02D10020606120
:1039300008E06069401C052815D8DFE800F0660340
:103940001521394700F084FA00F022FA18B100F08E
:103950007FFA00F0A4FA0121002000F0E7FDBDE8A5
:10396000314000F01ABC31BD00F05EFEE168401A43
:103970001E2824BF02206061BDE8314000F03EBC3B
:1039800000F0C8FE10B9A0690004ECD500F0EFFF0C
:10399000C046C04605F12D00002101704170002095
:1039A00000F0C4FD00F040FE20610320606131BDE5
:1039B00000F03AFEE168401A1E28D4D3042060616A
:1039C00000202080BDE8314001F08EB800F0A2FE5A
:1039D00020B9A06900045CBF0220606101F00BF90E
:1039E0000028C0D0208840F6B8318842A4BFBDE886
:1039F000314000F0B8B8401C2080BDE8314000F0F4
:103A0000A8BF00F025FA00F04AFA00F021FA00F011
:103A1000BFF90028F9D0F4E700F05BBD10B58F497D
:103A20000020486401F091F9044601F087F921462D
:103A300001F01BFA00F0F3FC00F020FE00F03DFB6B
:103A400000F094FFBDE8104001F013BA10B500205B
:103A500000F0B2F981484FF0FF31416464248021C5
:103A6000C16403E04FF47A7001F0B8FA2046441EB6
:103A70000028F7D17A487B4A016801F4E0611143DC
:103A80000160BFF34F8FFEE72DE9FE43734D05F153
:103A90002D04002694F800C045F82C10002721784A
:103AA000DFF8C4C1294481F82830217805EB810171
:103AB0004A612178491C2170C9B20529A8BF267026
:103AC00061780A4655F82230634535D24FF4E67ED8
:103AD0000EFB03FEDFF8908140F28A2CBEFBF8FE5D
:103AE000ACEB0E0CBCF1640F38BF4FF0640C8E428F
:103AF00019D0D5F850E09E4542F2107808D3AEEBCD
:103B0000030908FB09F80EF1010EB8FBFEFE07E001
:103B1000A3EB0E0E08FB0EFE03F10108BEFBF8FE40
:103B2000F44528BF7F1C761C052EE0DBFFB2022F78
:103B3000ACBF1E4600262B6505EB820300962A4487
:103B40005B690193491C92F8282061708DF8082068
:103B5000C9B20529A4BF0021617069461CC91CC0F7
:103B60000C38BDE8FE8330B53C4CA06C00F0FF0182
:103B7000012985B062D1400504F134001CD500F064
:103B8000B7FF00285AD000F0E4FEC3B2A26B616B0D
:103B900001A8FFF779FF029D0198294601F02AFA52
:103BA000606300200090A563636B9DF80C00002209
:103BB000294600F007FF41E000F09AFF00283DD0C1
:103BC000A26B616B002302A8FFF75EFF039D0298C2
:103BD000294601F00FFA6063A56300F0CCFF68B3DB
:103BE00000F0B7FE616B214B8AB29A420DD30021DF
:103BF000616308218DF8001000289DF8000014BFB3
:103C000040F0010040F0020003E00029F1D0BC21A7
:103C1000F0E78DF80000A06B001148BF00F5B4403C
:103C2000400040F00100ADF80100606BADF803000A
:103C300000F00EF90522694600F0A8F805B030BD85
:103C400010B5064C616C39B9A06400F0B1F800F011
:103C5000EBFCE06301206064002010BDB400002094
:103C60000CED00E00400FA05400D0300F9FF070029
:103C70002DE9F0410446524F01208846164638602F
:103C800001E0002060613046461E002860D018F830
:103C9000015B606948B100F0C7FC7968401A41F2E5
:103CA0008931884224BF00206061BA68606950B1E0
:103CB000012814D0022822D0032825D004282DD092
:103CC000802831D03BE0A52DDDD16069401C6061CA
:103CD0000020A076208300F0A7FC78602FE0280663
:103CE00018D48020606120684570002021688870A9
:103CF00010002DD0294620469047E0B928E0A08842
:103D0000E91C8842BDD305E02168208B8978801E9C
:103D1000884214D16069401C606110E0A07EA84216
:103D2000AFD18020606113E01000ACD0294620465E
:103D300090470028A7D0002060612083A076208BC8
:103D4000411C218321680D54A07E6840A0769AE72B
:103D5000BDE8F08110B5044600F020F8E26819498A
:103D600020469047012010BD1CB5A5248DF80040C9
:103D700043EA82725A248DF80140CDF802208DF872
:103D80000610072203696946984716BD036918475C
:103D9000406980280CBF012000207047002141614C
:103DA0000183817670470649086800220A607047DF
:103DB000034900200860704701498860704700008F
:103DC000903A0020713C000880B5ADF800108DF8E5
:103DD00002308DF80320694601F02CF901BD02B5CF
:103DE0001C48C369190002D001226946984701BDE9
:103DF0001848C16170471748806801F056BA38B555
:103E00000446144D0020E8616168206801F090F9D3
:103E10002068114901F067FA05F1200028600323AA
:103E20004FF48070A88018222068A8600B48E860D2
:103E30000B4828612169A06889B2FFF7C5FFE168D6
:103E4000A0680323042289B2FFF7BEFF012032BD20
:103E500000487047A0360020DF3D0008F13D000813
:103E6000F73D000838B5834C2468049D0095A047B1
:103E700032BD0B46816899600169196141695961D8
:103E8000018B1983817E9976018B4A1C0168186821
:103E9000B2F5807F88BF4FF4807201F097BA70B599
:103EA000754C86B005462146FFF7E3FF2846FFF72D
:103EB00075FF2046006840782028704E19D04028B1
:103EC0005DD050285ED052287CD0592800F0A080C8
:103ED0005A2800F08A8082281CD0842800F0908024
:103EE000852800F09180A8283DD0AA2800F0A38062
:103EF0000DE0306810F1010F09D0002000F028FF1C
:103F0000FFF79EFE05230122812100F0C1F8012068
:103F100006B070BD01F0B9FA0546306810F1010F26
:103F2000F5D02046006880780528F0D32046006848
:103F3000C01C007801460229B8BF012007DB35B15B
:103F4000AA8A9042E3D25020484328448069C0B2F4
:103F500000F0FEFE0546FFF773FE6805D7D5542333
:103F600001228521D1E72046006880780228CED33F
:103F700020460068C01C008800F02CF9C7E7FFF756
:103F800065FDC4E700F0DAFE8DF800000120C046B0
:103F900005461A20C04640EA0520ADF8010000F0B1
:103FA000D4FE8DF80300102101A800F0D9FE1423DF
:103FB0000022042100F06CF8142269462046FFF725
:103FC000E5FEA4E7306818B110F1010F02D102201C
:103FD0008DF800002A480068ADF801000323002294
:103FE000062100F055F80322E7E7242300221821D8
:103FF00000F04EF8242223492046FFF7C7FE86E74B
:10400000204601F07CFA82E7204601F0A5FA7EE71F
:1040100000210091012000F02AFFADF802000020ED
:1040200000F025FFADF8000004230022152100F068
:104030002FF80422C1E72046006880780528E6D3DF
:1040400020460068C01C104900688842DFD100206B
:104050004FF0FF310D4A42F82010401C0828FADBCF
:10406000002000900023002200210120FFF7FAFE2B
:104070004EE700002C00000878000020F800002027
:1040800000010020347300080A0AA5A580E100E0C1
:104090002046FFF769BE7047FEE7FEE7FEE7FEE752
:1040A0007047704780B5ADF800108DF802308DF87C
:1040B0000320694600F0BEFF01BD10B588B00323A0
:1040C00018224FF40061B748B74CFFF7EBFF03230A
:1040D00010224FF480412046FFF7E4FF4FF4804167
:1040E00020464161C04640F60F60ADF80800002050
:1040F0000190ADF80A0001A9AC4C204601F04AFA43
:104100006020ADF8100004A90120ADF8120040F2C3
:104110001450ADF816000020ADF81800204601F04C
:1041200081FA0021204601F0B8FA0821204601F06A
:10413000D1FA0121204601F0C3FA0121204601F005
:10414000A2FA40F22B10ADF8080041F61F40ADF87E
:1041500004000020ADF80A00ADF8060001A9944C57
:10416000204601F017FA01220121204601F0A0FAB1
:104170001D208DF8000003208DF8010002208DF82D
:10418000020001208DF80300684601F0D2FA0021F8
:10419000204601F078FA08B010BD10B5854C00201B
:1041A000A0610021824801F06EFA00217F4801F0F1
:1041B00074FA0020A06110BD10B57F497B4C0880C7
:1041C0000821204601F086FA2046BDE81040012172
:1041D00001F063BAB0F5966F764AC8BF4FF49660A7
:1041E00006DC030004D0B0F5F07FB8BF4FF4F070E8
:1041F000508070476F48408801F0D2BA38B56D4C96
:104200006B4D608801F0CCFA4FF4167161806B49F8
:1042100001F0D6FA6A4901F03FFB6A4901F0BAFBA6
:104220000121E0612170A16101F0F6FB80B2FFF78E
:10423000C3FF01220121284601F03AFA0121284654
:1042400001F021FA0020A08031BD80B500F069FAAC
:1042500001F0A6FA5C4901F01FFB01F0FFFB06210B
:10426000B0FBF1F0BDE8024001F09ABA70B5FFF77B
:10427000ECFF002100F0BAF819D04E4C207801284C
:1042800016D100F047FA90B100F04BFA01F088FA2D
:104290004D4901F001FB01F0E1FB48B10020207025
:1042A000608858B902206070BDE8704075E770BD45
:1042B000607818B10228F7D003D370BD0120607078
:1042C00070BD608801F06CFA0546FFF7BEFF01463D
:1042D000284601F0D5FBA0600546E16801F0D0FB5F
:1042E000206128463949666901F03EFC03D9384906
:1042F00001F04CFC01D2002010E0364901F034FC02
:1043000004D94FF0404101F041FC03D20020A060ED
:10431000206103E03046294601F03CFB60614FF02C
:104320007A50A16801F04CFA054661692A4801F00B
:1043300047FA294601F02EFB05462169274801F07E
:104340003FFA294601F026FBE16901F023FB2449ED
:1043500001F00AFC98BF234804D9234901F016FC58
:1043600038BF0846E06101F057FB80B2FFF724FF39
:10437000A068E06070BD10B50D4C0121204601F031
:10438000B1F968B10121204601F0B6F909488188E8
:10439000322924BFBDE81040FFF768BF491C818067
:1043A00010BD000000080140000C0140002C01403D
:1043B0000004004058000020402C01400080DE44F2
:1043C00000007A4400003B43BD37863F0100704146
:1043D000000070C1010000400AD7A33B0AD7A33CEC
:1043E00001001645000016450000C84340EA010CD4
:1043F0005FEA4C0C07D0884205D14FEA400C1CF113
:10440000807F98BF8042704780B5ADF800108DF86E
:1044100002308DF80320694600F00CFE01BD10B596
:10442000714C86B00323102200F071F80323102290
:1044300000F069F80121002000F078F80323002241
:1044400040216A486A4CFFF7DFFF0020019001A974
:1044500001208DF809004FF46020039000200490A3
:1044600001208DF81400204601F0A2FB0723012251
:104470000621204601F0E7FB0121204601F0B6FBB2
:104480000121204601F0D6FB0621204601F01FFC49
:104490004FF4657240F6FF712046416282625549D1
:1044A000204601F00EFC00F00EF853480121417047
:1044B0000021C17001208DF80300032000F02BF8CB
:1044C000012006B010BD01224FF4A071204601F07A
:1044D00096BB70B500F0A8F8484E0446D6E9000136
:1044E0000025201A65EB0101002901D80B2809D30A
:1044F00000F02BF8012842490CBF0420002008607E
:10450000C6E9004570BD4FF4805120467CE74FF46A
:104510000051204678E78DF8010012208DF8000048
:1045200001208DF80200684601F003B910B101289E
:1045300007D008E033484FF40052002914BF42600E
:104540000260012070470020704770B5284C00F0D1
:104550005BF80022FFF7B8FF0021204601F0B1FB15
:10456000254E244D707838B1012812D1B0704FF427
:1045700065724FF6FF7103E0B07000224FF46C716A
:104580002046416282622946204601F09AFBFFF7ED
:104590009AFF70780228B4BF401C002070703078F9
:1045A00070BD10B5124C0121204601F0A9FBC8B125
:1045B00000F02AF81048C178827812B1012A02D09E
:1045C00007E0002104E0491CC9B2642901DB642131
:1045D0000270C1702046BDE8104000224FF4A07167
:1045E00001F00DBB10BD0000000C014000080140AF
:1045F0000024014000028000A43A0020A83A0020D4
:1046000000010020100C01404FF4A071204601F081
:104610007EBB0000FEE714484168491C41607047BA
:1046200072B61248006800470F484068704710B5DE
:10463000EFF3108072B60C490D4C4A680D490B68B7
:104640002468640144BF521C0B680B4903B90B4634
:1046500080F310884FF47A74C81A6043B0FBF1F00D
:104660000021E4FB020110BD9C3A00200000002064
:1046700004ED00E018E000E040190100E0B5B748A3
:10468000002141650121C16400F028F88020ADF8C7
:104690000000694603208DF8020028208DF80300F1
:1046A000AF4800F0C7FC00F027F8012000F02BF81D
:1046B0000721002000F019FD012000F001F807BDDE
:1046C0008DF8030002208DF8010017208DF80000FE
:1046D00000208DF80200684601F02BB89F480021A9
:1046E000002201618163C163C0E902210164426467
:1046F0004FF0FF310165704700208DF80800102051
:104700008DF8090070478DF80A008020019001A8FB
:1047100001F002BB9148C06B02280CBF01200020B1
:10472000704730B58D4C206989B010B1FFF7F2FFAA
:1047300008B9002021E0202204F11401684600F0AD
:1047400045FE00980025014600225DF822305D19E3
:10475000984238BF18468B4238BF1946521C082A67
:10476000F3DB281A401A0621B0FBF1F08008800024
:104770004FF48001B1FBF0F0606309B030BD2DE96A
:10478000F041EFF3108072B6744E376C3569D6E99C
:10479000024880F31088FFF74AFF021B414506D804
:1047A00028BFA04203D2002245B9002022E042F6F1
:1047B000E4308242F8D30020F0631BE0736BB8054D
:1047C0002FB1781C8005012F08BF4FF40000002195
:1047D000E2FB0301800A40EA8150F16C51B110F50F
:1047E0009C3048BF00F5B42004D4B0F5B42FA8BF66
:1047F000A0F5B420BDE8F08170B5584CD4E902238F
:10480000811A0020626C42F6E333994228BF0022ED
:1048100012D223694FF4FA755D43AD0AAD1C5E1BDD
:104820008E423CBFEB18994214D2521C3C2A03D34F
:10483000B52A28BFB4220120626421612278082AA7
:10484000A4BF00222270227804EB82035961511C1C
:10485000217070BD521EE9D10122EDE780B5FFF74E
:10486000CBFF002806BF3D49C863012002BDF8B553
:104870003C480068000667D5FFF7D9FE04460D46A0
:10488000364E394A376CD6E9020112681206F26BCD
:1048900023D4002A58D0B16B201AE1B132224A4306
:1048A000D20A02EB4101891C884214D3316DF26BAC
:1048B000012A04D18F4209D10221F16302E02FB114
:1048C0008F4201D1002701E037653DE000213164CE
:1048D00037650121B164B06336E0022A09D1221A9A
:1048E00065EB0103002130698B4202D8B2EB900FD7
:1048F0002AD3F06BA8B1022800D01FD22046294647
:10490000FFF7ACFFF0B1781C592828BF00203064B5
:10491000F06B022816D1716D080013D030698847FA
:1049200010E020462946FFF767FF58B10120F063E9
:104930000020B0634FF0FF30306503E02046294689
:10494000FFF78CFFC6E90245BDE8F240802001F088
:1049500015BA0249886C00228A64704730390020F9
:1049600000080140140401400808014000BFDFF8BE
:104970001C010021C0E90311416101708161C16125
:104980000162416081604162704770B5B0FA80F3A6
:10499000C3F1170383F30803072B0FF2F8050FF297
:1049A0002C142CBF18239B00ED58E458401BE0400A
:1049B00000FA04F675190D6014600FF2F401C9587D
:1049C000401870BDF0B5314D314CAA6983B01E4618
:1049D000091152B9002856D00020686128700120C2
:1049E000A86141F40040608002E0686900B961801C
:1049F000686904EB4000071DA6B12A6A0223291D3D
:104A0000304601F0C3F9296A491C022928BF002158
:104A10002962696A891B48BF4942B1F58C7FD8BFBA
:104A200006466E62B0100899090403D56A4601A9CA
:104A3000FFF7ABFF010C090418BF0020388068693C
:104A4000401C282868611DD3A01C522103E010F8E7
:104A5000013B5A402A700B46591E2A78002BF6D18A
:104A600002F00F0040F0A0002070100940F050004C
:104A70006070FFF7EDF954222146FFF787F9002017
:104A8000686128700120FEBD000000004C3A002043
:104A90008839002000000000000200000002000031
:104AA000000800000010000000100000004000009E
:104AB00000000000000200000002000000050000ED
:104AC0000007000000070000000D000000000000CB
:104AD00001000000010000000200000003000000CF
:104AE00003000000040000007D48002101607047C1
:104AF00050B57C497C4C4FF448720A445388168860
:104B0000B34202D10020A07050BD01EBC3035B682B
:104B10004360538851F833105B1C53809BB2642B65
:104B2000A4BF00235380A26B12125318002A04D58D
:104B30005242914202D2002101E001B119460160C6
:104B4000012050BD10B5674CB4F8201344F8310073
:104B5000FFF715FEB4F8201304EBC1014860B4F868
:104B60002003401CA4F8200380B26428A4BF0020C6
:104B7000A4F8200310BD5D480178491C0170C9B23A
:104B8000092903DB002101700020704701EBD1707F
:104B90004008B1EB400018BF0120C0B27047524935
:104BA00001EB400000897047012894BF01200020DC
:104BB000704710B54C4C61282170607003D1F4200F
:104BC00020816C2005E0622804D140F24110208150
:104BD0008E206081182204F11C01002001F0A8F948
:104BE00030B9E06120626062A062E062206300E0B0
:104BF000A06AA06310BD3C48807870473A49002203
:104C00000A8300F00303032B0FD10B8B43F4004303
:104C10000B830F2A07D00B8B521C8008D2B25B0883
:104C2000102A0B83EDDB088B704710F0030FF0D1D7
:104C300000200883F7E738B52B4CE2780978606BE1
:104C40002578D30001FA03F31843521C2379112D60
:104C500010D18BBBE2706063D2B2022A32DB2083B8
:104C6000208B8000FFF76EFF012020710020E07094
:104C700001201FE0102D25D1F3B9E2706063D2B29C
:104C8000042A1FDB6178612902D0622903D009E080
:104C9000FFF7B4FF05E0FFF7B1FFC0F30B000A21F7
:104CA00048432083208B8000FFF74CFF0020E070FA
:104CB00001202071A07031BDDD2903D100202071B9
:104CC000E070606331BD0848806B7047006806493A
:104CD0008863886218221C31002001F046B9000068
:104CE0009C3400207C3100201C000020B83A0020B9
:104CF00038B5934C2468049D0095A04732BD80B51B
:104D0000002100910023014600224AF20300FFF730
:104D1000EFFF02BD38B50446002000900D46002389
:104D2000002221464AF20200FFF7E2FF20B12046AE
:104D3000FFF7E5FF007832BD284632BD8148417853
:104D4000807840EA0110C0B270477E480078704712
:104D500002280FF2342128BF002051F820007047AC
:104D6000102900D2704710B50021774A774C52F8CD
:104D70002130634040F82130491C0329F7DB1168DA
:104D80005368926859405140C16010BD70487047E7
:104D9000704870472DE9F84F11286F4C6F4DDFF8C0
:104DA000C0816C4EDFF8BCB14FF4007A4FF48067DD
:104DB0004FF47A3915DB272000F02DF8C6F818B02B
:104DC000C6F81C90C6F820807762C6F828A0356027
:104DD00074606548B0604FF40060F060376108208F
:104DE00016E0102815D1252000F015F8B561C6F899
:104DF0001C905D4830624FF400607062B762C6F884
:104E000000B07460C6F80880F760C6F810A00A20E9
:104E10007061BDE8F18F8DF8000000208DF803006F
:104E2000684600F086BC10B511210020454CFFF704
:104E300071FF207000210120FFF76CFF60700221DC
:104E40000220FFF767FFA070002060600620FFF7D8
:104E500056FFE060002020822078BDE8104099E7EE
:104E60000FF22C11085CFFF79FBEFFF7A2BEFFF701
:104E700096BE2DE9F047DFF8F4A00FF2F4080FF228
:104E8000FC09504600F0DEFA00270AF10C05502616
:104E9000F8B2FFF7E5FFF0B128897043504400F104
:104EA0001804F8B22760FFF77AFE0002606017B1BD
:104EB000012F05D00FE0812020730922414603E035
:104EC000852020730B22494604F10D0000F07EFA84
:104ED0002889401C28817F1C072FD9DB0AF1070095
:104EE0004FF41671018041804FF4F07028804FF428
:104EF000966068804FF42050686000202A8900E0A6
:104F0000401C81B2914207D280B206FB00F15144AD
:104F100089690129F4D100E00020AAF818050020D1
:104F200005E006FB00F269685244401C11622989C1
:104F30008842F6DB5046BDE8F04700F0A9BA000011
:104F40002C000008743A0020E8F7FF1FF0D2ABC134
:104F5000343A00201C3A002080841E0000480040A3
:104F60000008014000380140000C0140582C00208E
:104F70005374616E646172640000000044656E7376
:104F800065426F6F737400000100000001040000AF
:104F90000001000001B40098411E00280091FAD1E0
:104FA00001B0704738B5FFF742FB04460D460F4885
:104FB000FFF7F0FFFFF73BFB021B61EB050300204F
:104FC00000218B4202BF824201220023074801F0E8
:104FD00017F800B901200649086031BD81B00449C5
:104FE00001B400980968484302B0D3E720A1070044
:104FF000940000204FF4FA6251434FF4B47291FBD5
:10500000F2F1891200B9704730B5094A52F82130DF
:105010001C1A48BF64420512A54203DB03EB43039D
:10502000C018801042F8210052F8210030BD000065
:10503000080500202DE9F041CC78002204F00F0390
:10504000E40644BF8C7823430C8801250F26E7B281
:105050000FB3D0F800C005FA02F707EA0408B84514
:1050600014D14FEA820E06FA0EF82CEA080C03FA65
:105070000EFE4EEA0C0C91F803E0BEF1280F08BFBB
:10508000476103D0BEF1480F08BF0761521C082AD0
:10509000E1D3C0F800C0FF2C25DDD0F804C0002209
:1050A00002F1080705FA07F707EA0408B84515D121
:1050B0004FEA820E06FA0EF82CEA080C03FA0EFEEE
:1050C0004EEA0C0C91F803E0BEF1280F08BF4761CF
:1050D00091F803E0BEF1480F08BF0761521C082A8F
:1050E000DED3C0F804C0BDE8F08130B56FF0030333
:1050F0008A001940064B02F00C025C580F259540BF
:10510000AC435C5090405C582043585030BD000088
:1051100008000140DFF88C12884201D1012070475D
:10512000DFF8841288420CBF03204FF0FF30704735
:10513000F0B58FB004460D46FFF7ECFF064616F1BA
:10514000010F08BF002047D01020029000200390DC
:1051500004908020059000200690079008904FF45E
:105160008050099000200A90201D012E009002D04E
:10517000032E03D00BE0DFF8387201E0DFF82C7269
:10518000384600F0B5FF6946384600F0FEFF0BA830
:1051900001F0AAF80B950BA9204601F057F8002062
:1051A0002080012240F22551204601F0B3F801226F
:1051B0008021204601F0C6F80121204601F0A0F828
:1051C000012E05D0032E0CBF4FF48160794800E01A
:1051D000002000F07FF801200FB0F0BD70B51E4632
:1051E000FF2E0C46154609D8C6F58071A94238BF76
:1051F0000D46FFF78FFF10F1010F01D1002070BDA8
:1052000001286D4902D0032803D001E0283100E0D5
:1052100004210A68002AFCD1012806D003280CBF0B
:105220004FF480706FF0FF0000E00020634B1844E3
:105230002A462146304400F0C9F8284670BDF8B52A
:105240000D46FFF767FF064616F1010F2CD0012827
:105250005B4F05D003280CBF07F11804002401E0C0
:1052600007F140040021204600F0AAFF012E04D0DF
:10527000032E0CBF2020002001E04FF400503860C6
:10528000012E656006D0032E0CBF4FF480706FF0C6
:10529000FF0000E0002049490844E0600121204669
:1052A000BDE8F44000F08CBFF1BD38B504460D46B2
:1052B000100004BF284601F073F802460023294677
:1052C0002046FFF78BFF054629462046FFF7B7FF2C
:1052D000284632BD3B4908444FF480610844002110
:1052E00041600160704710B50C46FFF713FF10F1E5
:1052F000010F0ED0210008BF0FF26D04012805D068
:1053000003280CBF04206FF0030000E000202E49AA
:105310000C5010BD10B5234C00F020F830B1A0881F
:10532000294A126800F0FF01012090470BE010B5F8
:105330001D4C00F013F830B1A088234A526800F0E9
:10534000FF01032090470821204601F003F80128BF
:1053500003D14FF6F7702080A08810BD40F2255190
:10536000204600F0FEBF000030B5012805D003281C
:105370000CBF4FF481600F4800E00020114A104438
:105380004FF48062024413685C1C651204EB95556F
:10539000AD12A4EB85245568AC421CBFC154146007
:1053A00030BD000000380140004800401C000240B1
:1053B00044000240F8FBFFFF20000240A034002020
:1053C0000400024048240020AC00002062B38B0798
:1053D00008D0521E11F8013B00F8013B00F0248078
:1053E0008B07F6D1830740F0208000BF103A07D327
:1053F00030B4B1E83810103AA0E83810F9D230BC17
:10540000530724BFB1E80810A0E8081044BF51F8C2
:10541000043B40F8043BD20724BF31F8022B20F8AC
:10542000022B44BF0B7803707047083A07D3B1E8EA
:105430000810083A40F8043B40F804CBF7D2530771
:10544000E4E7000010B5044640F2245100F0C4FF28
:1054500000202070A4F80500A4F801004FF6FF70AA
:10546000A4F803004FF41670A4F80700A4F809008C
:105470004FF4F070A0814FF46170E0814FF4205040
:1054800020610020C4F8200510BD03480068704763
:105490000149086070470000B03A002010B582B0A2
:1054A000049C009400F010F813BD00B583B0054AC9
:1054B000019201AB042200920A460021FFF7EEFFA1
:1054C00007BD00000480008076B50029069E1D46B9
:1054D00014BF202121210446331D0022FEF744FC85
:1054E000042201A92046FEF751FC002D18BF002E12
:1054F00004D0324629462046FEF748FC73BDF8B575
:10550000044600688078064620460068C01C0546B0
:105510002F1D361F1FD4286800F18040B0F1805F36
:1055200006D23B4632462946204600F0ABFF90B9F2
:105530002868B0F1004F06D23B4632462946204645
:1055400001F0CAF838B90020009000232A68012130
:105550002046FFF7A3FFF1BD70B5044600688078D0
:10556000054620460068C01C0646331D2A1F0FD47E
:10557000306800F18040B0F1805F04D231462046AF
:1055800000F0A0FF20B931682046BDE870408CE7EC
:1055900070BD000030B5DFF86831DFF87C21048889
:1055A000984218BF90420ED0B0F1804F1CBFDFF878
:1055B0005451A84207D0DFF85051A8421CBFDFF871
:1055C0004C51A84204D14FF68F752C404D882C4386
:1055D000DFF83C51A8421CBFDFF83851A84204D084
:1055E0004FF6FF452C40CD882C43048098428C8890
:1055F000848518BF90420C8804850AD0DFF81C21EE
:1056000090421FBFDFF818219042DFF81821904226
:1056100001D1097A01860121818230BDDFF8E05095
:10562000A842704770B5028C4EF6FF7300F024F864
:10563000838B00F01BF84DF6FF752C400D89354328
:1056400044EA0534FFF7EAFF1CBFDFF8CC50A8425C
:1056500005D14BF6FF752A408D8942EA851282807A
:105660008383C988A0F84010048470BD4E882B4005
:105670000D8843EA052370471A40028448F6FF4527
:10568000048C828870470029018812BF41F0010113
:105690004FF6FE721140018070470029B0F84410A7
:1056A00014BF41F40041C1F30E01A0F8441070474B
:1056B000002A828914BF114322EA010181817047C7
:1056C0000029018812BF41F080014FF67F7211401E
:1056D00001807047828B4FF2FF731A4042EA01212A
:1056E00081837047038A8089002208400B421CBFD7
:1056F000002801221046704700BFC943018270474D
:10570000002C01400004004000080040000C004054
:1057100000100040001400400034014000400140EF
:1057200000440140004801401849084318490860F6
:10573000704770B50378C4781A460121E4B1144B60
:105740001B68447803F4E063C3F5E0631B0AC3F10C
:105750000405AC4085780F26DE4006EA05032343A6
:105760000C4C1B01A354007800F01F0291400A4A20
:10577000400942F8201070BD03F01F0001FA00F04C
:105780000649520941F8220070BD00000000FA05E8
:105790000CED00E000E400E000E100E080E100E06A
:1057A000002800BF0AD0B0FA80F18840D1F19D01F5
:1057B000C905020672F1004241EB1020704700005B
:1057C000FF2212EAD05C1DBF12EAD15394459342E6
:1057D0002BE09C44D30780EA01021A4043EA0020F0
:1057E00043EA0121A1FB0030410038BF40007CF1B9
:1057F0007F010BDBFE294ADA5B0842EAC15153EA1A
:10580000006373F1004C51EB10207047D1F1080C8C
:10581000DCF120012FDB5B0810FA01F10B4373F17F
:10582000004120FA0CF05041704794451CBF02EA39
:10583000D153934280EA010202F000421DD04000A1
:1058400019D0490017D05BB9634514D00902B1FAE9
:1058500081F39940BCEB030CC00140F00040C1E76C
:105860000002B0FA80FC10FA0CF0B3EB0C0CC9018A
:1058700041F00041B6E71000704740000AD04900EF
:1058800008D010F1807F94BF11F1807F02E042F0D8
:10589000FF407047D043704710B5FF2313EAD05440
:1058A0001DBF13EAD1529C429A4239E0A41ADA078A
:1058B00080EA0103134042EA012142EA0020421A31
:1058C0003CBF641E01EB4202090AB2FBF1FE01FB80
:1058D0001E221202B2FBF1F001FB10226EF30F2028
:1058E0001202B2FBF1FE4EEA00207F3406DDFE2CF0
:1058F00024DA53EA500050EBC45010BDD4F1020436
:1059000001FB1E2240F08071192C1DDC21FA04F0ED
:10591000C4F12004A140114371F10042584110BD6F
:105920009C421ABF03EAD1529A420FE080EA010E6C
:105930000EF00043400004D0490016D143F0FF4070
:1059400010BD490008BFD343180010BD9C4205D1CB
:10595000D21AF7D001F00041484010BD4A0212BFF0
:105960000846484000F0004010BD4AB90902B1FAAB
:1059700081F2914044B1A418C00140F000409EE77C
:10598000C90141F0004152420002B0FA80F4A04047
:10599000141B94E790EA010F44BF81F0004100F02E
:1059A00077B800BF421A3CBF801A89184FF0004CEC
:1059B000C0F3C752FF2A24D0C1F3C75313B3D21A7E
:1059C000D2F1190327DD4CEA01214CFA03F321EA55
:1059D0000303D140C20D4CEA0020401834BF20EA36
:1059E0000C004CEA5000D20553EA006373EB0C0C38
:1059F00052EB1020420012F1807F38BF7047C00D7B
:105A0000C0057047490212BF9A4200EB5120F8E7E7
:105A1000D2F11703D9D570474100090E7F3915D44B
:105A2000D1F11F0114D4400007D2C00140F0004062
:105A3000C84048BF6FF000407047C00140F00040D0
:105A4000C8404CBF4FF000404042704700207047B4
:105A500000424FF0004058BFC043704740000DD295
:105A6000010E7F390AD4D1F11F0104D4C00140F0E6
:105A70000040C84070477FF000007047002070472A
:105A800090EA010F44BF81F00041FFF78BBF00BFD8
:105A9000431A4FF000423EBF5340C01AC91800BF1E
:105AA000D3095FEAD05C13EB400F34BFB3EB410F77
:105AB00040E07CEBD1530CD342EA012122D8D1EB58
:105AC000402009D3400A28BF5FEA500140EBCC5088
:105AD0007047401A15D04002B0FA80F2521C904034
:105AE000400A4FEA3C23B3EB026384BF00EB730030
:105AF00007E040F400001A16DB07C2F10102D040B3
:105B000018437047182BFCDC31FA03F202FA03F356
:105B1000591A38BF42F00102D2EB40203CBF40008E
:105B2000ACF1010C5FEACC5CC20572F100414CEBB8
:105B30005020704713EB400F0FD24B0009D0ACEB55
:105B4000D153022B03DB4902172BDDDD7047914354
:105B5000401A4300D5D10020704713EB410FD0D33A
:105B60006FF00000704700004FF0807C1CEB400F8E
:105B700094BF1CEB410F05E040EA010C5FEA4C0CBE
:105B800001D28142704718BF884270474FF0807C35
:105B90001CEB400F94BF1CEB410F05E040EA010CE9
:105BA0005FEA4C0C01D28842704718BF81427047AF
:105BB00042684F4B1A400B681A430B7942EA0322A2
:105BC00042604C4B82681A40CB681A438B681A4378
:105BD0004B7942EA43028260C26A097C491E22F480
:105BE0007002C9B242EA0151C1627047002981685E
:105BF00012BF41F001014908490081607047002A45
:105C00004268C9B214BF114322EA010141607047E2
:105C1000816841F00801816070478068C00806E033
:105C2000816841F00401816070478068800800F05D
:105C3000010070470029816814BF41F4A00121F4DC
:105C4000A0018160704770B500F022F81F24072A78
:105C500007DA521E02EB8202436B00F014F8416334
:105C600070BD0D2A07DAD21F02EB8202036B00F02F
:105C70000AF8016370BD0D3A02EB8202C36A00F0BC
:105C800002F8C16270BD9440A3439140194370472C
:105C900007240A290BDBA1F10A0505EB4505C668B7
:105CA000AC4026EA0404AB402343C360704701EBD9
:105CB00041050669AC4026EA0404AB402343036176
:105CC000704742680C4B1A4011434160704742686C
:105CD000520941EA421141607047084900280868AA
:105CE00014BF40F4000020F400000860704700007A
:105CF000FFFEF0FFFDF7F1FFFFFD3FFF082401402D
:105D000000680022084218BF012210467047090AA5
:105D1000C94301607047000030B501688279CB4308
:105D200018492AB30A46146823401360536804686C
:105D3000A34353600379CC18236805682B43236081
:105D400093680468A3439360D3680468A343D36053
:105D500043790568102B07D1916829439160D16878
:105D600000680843D06030BDCC182068284303E0A9
:105D700000790C1820681840206030BD00BF02492F
:105D8000086070470004014014040140F0B501EBC5
:105D900083060027D6E9004551F82260A61B65EB73
:105DA00007070025341801EB83067D41C6E900454D
:105DB00041F8220001EB8302D2E90001BDE8F04086
:105DC0001A46002300F0FAB82DE9F04100F578708A
:105DD0001D46144603884FF6FF72934227D130F8D0
:105DE000203D9342FBD000F1200818F1010F1ED096
:105DF00089B2404600F02AFD042818D11F2D28BF83
:105E00001E256E080027760005E0E15B00F01EFD10
:105E100004280CD1BF1C07EB0800801CB742F4D348
:105E2000AE4206D0E15D00F011FD042801D0002053
:105E300000E00120BDE8F08180B500F0EBFC042813
:105E40000CBF0120002002BD80B500F0FFFC04283B
:105E50000CBF0120002002BD00F5787200E0203A5E
:105E600013888B4201D09042F9D382420CBF4FF08D
:105E7000FF30901C704770B50D46044628884FF6D9
:105E8000FF71884203D02846FFF7D6FF00B34CF6D7
:105E9000CC412846FFF7D8FFD0B100263146204636
:105EA000FFF7DAFF10F1010F06D002461E2331463C
:105EB0002846FFF789FF58B1761C062EEEDB00213D
:105EC0002846FFF7C1FF18B12046FFF7B5FF0120B4
:105ED00070BD38B53648374900880988344C354D8F
:105EE0004FF6FF7240B991420ED029462046FFF787
:105EF000C2FFD8B12C4607E051B99042FAD02146F2
:105F00002846FFF7B8FF88B12B480460012032BD56
:105F10002046FFF791FF48B12846FFF78DFF28B1D3
:105F200000212046FFF790FF0028EDD1002032BD70
:105F300038B50C46204915460A685AB10146104644
:105F4000FFF78AFF014611F1010F05D129462046CE
:105F500000F0C0FC002032BD1F2D2CBF1E222A469F
:105F60002046FFF733FA284632BD2DE9F041124FA3
:105F7000044638680D46904670B100F578714FF6CA
:105F8000FF72098891420AD0094EB04208BF094EFB
:105F90003146FFF770FF08B9002007E03E6038681F
:105FA00043462A462146BDE8F0410DE7BDE8F081B1
:105FB00000F8000800FC0008B43A002013F0004C80
:105FC00003D55B42524263F100039CEA210C00F0CE
:105FD000178010B5644603D34942404261F1000185
:105FE00000F00EF8640004D34942404261F1000120
:105FF000244203D55B42524263F1000310BD00000E
:106000001B4213D1094236D12AB18446B0FBF2F0CB
:1060100002FB10C2704700F061BCFCD300220023D9
:1060200070470B000200002100207047904271EB86
:10603000030CF6D370B5B1FA81F4B3FA83F52C1BD7
:10604000A340C4F1200532FA05F63343A2405FF0C5
:106050000046E64002E05B085FEA3202841A71EB18
:10606000030524BF204629467641F4D302000B00E5
:106070003000002170BD012ACFD970B5140C20D09A
:10608000B1FA81F4B2FA82F5C4F120046419B4F1D2
:106090002006D6D3B2405FF00044F440002502E071
:1060A00052085FEA3303C61A71EB020E24BF304672
:1060B000714664416D41F3D302000B0020002900BA
:1060C00070BD0C46B1FBF2F102FB11452D0445EA0F
:1060D0001045B5FBF2F402FB145580B240EA0545C9
:1060E000B5FBF2F002FB105240EA044070BD000024
:1060F00001684FF6FE7211400160002101604160AD
:106100008160C160414A424990421DD0414A90425B
:1061100021D0414A904225D0404A904229D0404A5D
:1061200090422DD03F4A904203D1086840F470005D
:1061300029E03D4A904203D1086840F0706022E0B7
:106140003A4A3B49904203D1086840F00F001AE0F8
:10615000384A904203D1086840F0F00013E0364A14
:10616000904203D1086840F470600CE0334A9042DA
:1061700003D1086840F4704005E0314A904203D1F1
:10618000086840F470200860704702688B686FF3FD
:106190000E121A430B6A1A430B691A434B691A43CE
:1061A0008B691A43CB691A434B6A1A438B6A1A43A9
:1061B0000260CA6842600A6882604968C1607047CC
:1061C0000029016812BF41F001014FF6FE72114033
:1061D00001607047002A026814BF114322EA0101DE
:1061E00001607047406880B270470021C2004CBF18
:1061F000144A154A1268024218BF01210846704726
:10620000C1004CBF0A4902490860704708000240BB
:10621000040002401C0002403000024044000240E2
:10622000580002406C000240800002400804024016
:10623000040402401C0402403004024044040240B2
:1062400058040240000402400000024030B50446F9
:1062500085B00D46208A4CF6FF710840E988084356
:1062600020824EF6F311A0890840A98808432989A5
:10627000084369890843A0814FF6FF41A08A08407E
:10628000A9890843A082684600F032FB15482968B6
:1062900084420CBF0398029819225043A289120429
:1062A0004CBF49008900B0FBF1F16420B1FBF0F074
:1062B00000010209642303FB1211A289120406D50E
:1062C000C9003231B1FBF3F101F0070105E009012A
:1062D0003231B1FBF3F101F00F010843208105B029
:1062E00030BD0000003801404FF41651016000211C
:1062F0008180C18001810C21418100218181704711
:106300000029818912BF41F400514DF6FF721140FE
:106310008181704710B50B065B0F012401F01F014E
:10632000012B04FA01F108BF0C3003D0022B0CBF83
:1063300010301430002A026814BF114322EA010110
:10634000016010BD002A828A14BF114322EA0101B4
:106350008182704700880022084218BF012210463F
:10636000704730B50A46130600215B0F012402F086
:106370001F05012B04FA05F508BF838903D0022B02
:106380000CBF038A838A120A008804FA02F22B40A7
:106390001040002B1CBF00280121084630BD000022
:1063A00000F10103810704D010F8011B89B18107B6
:1063B000FAD10268B2F10131914311F0803F04BF7C
:1063C00050F8042FF6E710F8011B11B110F8011B6B
:1063D000FBE7C01A70470000002200F0F3BA00008B
:1063E00010B582B0049C0094FFF76EF813BD04B59D
:1063F00082B00422009202AB0A460021FFF7F0FFB0
:1064000007BD80B50022009200230A460121FFF754
:10641000E7FF01BD38B504460D46184691088B00CC
:10642000934218BF4FF0802205D1FEF74FFC0028A1
:1064300014BF0022394A29682046BDE83840D6E713
:10644000F8B504460D4616461F46FFF71EF82A68A3
:1064500033498A4214D1042E02BF3A68314B9A4222
:1064600008D1D0F8201541F00101C0F82015002214
:10647000296800E02C4A2046FFF7B9FF0120F2BD51
:106480000020F2BD30B583B004460D46FEF7FDFF97
:10649000296890B190F82005C0070ED5234DA94278
:1064A0000BD1FEF710FC019001AB042000902A46AE
:1064B00001212046FFF794FF02E02046FFF7A1FFED
:1064C00001203EBD2DE9F84304460D461646994687
:1064D000FEF7DBFF0700DFF8508001D1296815E0E7
:1064E0004B46324629462046FFF7AAFF90B997F857
:1064F00020052968C00709D50C48814206D14B46C2
:10650000324629462046FFF785FF03E042462046F3
:10651000FFF76DFF0120BDE8F283000001800080DD
:10652000F0FFFFCF1C00DACF04800080300001C0F4
:1065300010B582B0049C0094FEF7C6FF13BDFDF7B2
:1065400025BC04B582B00422009202AB0A460121A8
:10655000FFF7EEFF07BD80B50022009200230A4638
:106560000121FFF7E5FF01BDF0B58FB004460D46F0
:106570001646032101A8FFF72FFF302102A8FFF7DD
:106580002BFFB08A8DF8060000201AE0502141430D
:10659000314418311A4A4B68B2FBF3F2BDF80430AB
:1065A00097B2BB4238BF3B46ADF8043002AF00EBB8
:1065B00040031F44401CA7F8012002AA0968D154D7
:1065C00080B2B18A8842E1DB9DF8060000EB400012
:1065D000C01C009000232A4601212046FEF774FFCC
:1065E000032201A92046FFF7AAFF9DF8060000EB51
:1065F000400202A92046FFF7A2FF0FB0F0BD000045
:106600000040420FF8B500F044F82968022E03D389
:106610003A88838A9A4200DB14E050235A4310449C
:10662000C26913E0F8B500F034F82968022E03D3EC
:106630003A88838A9A4200DB04E050235A4310448C
:10664000026A03E02046BDE8F44084E72046BDE846
:10665000F84076E7F0B583B000F01BF8022E03D3C4
:106660003988828A914204DB29682046FFF773FF4C
:10667000F7BD50225143084401AB90F824008DF837
:10668000040001210120009020462A68FFF750FFF6
:10669000F7BD04460D4616461F46FEF7F6BEF8B592
:1066A000FFF7F7FF2D68022E03D33988828A9142C3
:1066B00001DB2946C6E750225143084400F1250674
:1066C0003046FFF76DFE401C009033462A460121FC
:1066D0002046FFF72DFFF1BDF8B5FFF7DAFF296877
:1066E00018B92046FFF737FF25E0E1B1012924D092
:1066F000022951D0032963D0042929D005292DD09E
:10670000402931D045291DD0602932D0702936D09A
:1067100071295AD074295DD0752960D07C2934D074
:106720007F2961D065E006210091431C00220121F0
:106730002046FFF7FDFE0120F2BD04210091C31D9C
:106740000122F4E70421009100F21C534522EEE7F8
:106750000221009100F10C030422E8E702210091DC
:1067600000F10E030522E2E70121009103464022D9
:10677000DEE70421009100F110036022D7E7022137
:10678000009100F114037022D1E7022100917C22D4
:106790004FF4A3614318CAE7002108E089B25025ED
:1067A0004D4305440123AD69AB401A43491C858A1A
:1067B0008BB2AB42F2D302212046FFF7C2FEBAE70A
:1067C00002462046FFF7D0FEB5E700F014F8FFF7C9
:1067D00019FFB0E700F00FF8FFF724FFABE700F078
:1067E0000AF8FFF737FFA6E700F005F8FFF757FFB5
:1067F000A1E70020F2BD3B463246294620467047BD
:10680000FFE7DFF89C00DFF89C100160DFF89810CC
:106810000160704738B5054600F015F804280DD121
:10682000DFF88840206840F002002060656000F0DA
:1068300006F8216841F6FD721140216032BD2068E2
:1068400040F0400020604FF4302033E070B5044643
:106850000D4600F011F804280CD1144E306840F0B9
:1068600001003060258000F007F8316841F6FE72C3
:106870001140316070BD08804FF400501AE00C499F
:106880000A680420D20701D5012070470A68520720
:1068900001D5022070470968C90648BF0320704728
:1068A0000420024023016745AB89EFCD1020024050
:1068B0000C20024010B5FFE70446FFF7E0FF03E0BD
:1068C0002CB1FFF7DCFF641E0128F9D004B90520C4
:1068D00010BD0000002200F08FB8000070470000DB
:1068E0001043086070472F490A6822F44042F7E7D6
:1068F00030B52C492C4B0A682C4C02F00C02042AAF
:1069000013D0082A10D10A680D68C2F38342921C82
:10691000ED0358BF264B05D50D68AD0348BF04FBFA
:1069200002F302D4534300E023460360214A0B687C
:106930000468C3F30313D35CDC4044600B68446811
:10694000C3F30223D35CDC4084600B684468C3F368
:10695000C223D35CDC40C4600968C368C1F38131E1
:106960001144097CB3FBF1F1016130BD124A0029E9
:10697000116814BF084321EA0000106070470F4AF5
:106980000029116814BF084321EA00001060704715
:106990000B4A0029116814BF084321EA0000106067
:1069A00070470000041002400024F40000127A0036
:1069B00000093D0098000020141002401810024009
:1069C0001C10024000B500BF1300964694461039D3
:1069D00028BFA0E80C50FAD85FEA417C28BF0CC061
:1069E00048BF40F8042BC90728BF20F8022B48BF36
:1069F00000F8012B00BD0000401810F0030308D080
:106A0000C91A1FD3DB0748BF00F8012D28BF20F8A3
:106A1000022D130030B414461546103928BF20E962
:106A20003C00FAD8490728BF20E90C0048BF40F8CD
:106A3000042D890028BF20F8022D48BF00F8012D41
:106A400030BC7047C91818BF00F8012DCB0728BF0C
:106A500000F8012D704700009749884201D10120BC
:106A60007047964988420CBF03204FF0FF307047B3
:106A70002DE9FF410446884615461E46FFF7ECFF08
:106A8000074617F1010F08BF002032D06846FFF714
:106A90002BFCCDF8008069462046FFF7D7FB00208D
:106AA000208001212046FFF72BFC012F844803D0D2
:106AB000032F05D1856009E005608680002111E083
:106AC000012F40F8085CF8D0032F01D1868105E042
:106AD000012F20F8046CF1D0032F01D1082101E02F
:106AE0006FF0070108443246C6802946204600F070
:106AF00003F804B0BDE8F081F0B58DB004460E4651
:106B00001746FFF7A9FF054600200390059002965F
:106B1000802006900497002007900890202009907C
:106B20004FF440500A9000200B90201D012D019041
:106B3000644E654F02D0032D08D025E03046FFF7A4
:106B4000D7FA01A93046FFF720FB22E03846FFF7CD
:106B5000CFFA01A93846FFF718FB01213846FFF7A5
:106B60002FFB012206213846FFF734FB0120012DBF
:106B70008DF801008DF802008DF8030002D0032D7E
:106B800015D01AE00F2013E0012D02D0032DE4D020
:106B900004E001213046FFF713FB04E0012D02D091
:106BA000032DDED0E2E7012206213046DCE70D208E
:106BB0008DF800006846FEF7BCFD002240F225512A
:106BC0002046FFF7A7FB012240212046FFF7BAFB32
:106BD0000DB0F0BD10B50C46FFF73EFF10F1010FF0
:106BE0000FD0210008BF0FF25514012805D003284B
:106BF0000CBF04206FF0030000E00020304908447F
:106C0000046110BD2DE9F047052882B02E4902D15C
:106C10000124283105E003280EBF03244FF0FF3480
:106C200000210846FFF7DEFA012C80466FF00709C5
:106C300004D0032C0CBF0820484600E00020204F61
:106C40003844851D012C04D0032C0CBF0820484675
:106C500000E000203844EFF3108A868872B60AE01C
:106C60003B4401221B69694698472888401E2880BA
:106C700080B200B92E802888404517D0012C04D05E
:106C8000032C0CBF0821494600E000217958301A36
:106C9000085C8DF800002046012805D003280CBFB1
:106CA00004236FF00303DBE70023D9E78AF310889E
:106CB000BDE8F387000000000038014000480040B4
:106CC00004000020580002403000024080B54FF41C
:106CD0008020FFF78AFA30B10520FFF793FF4FF4C9
:106CE0008020FFF78DFA4FF40030FFF77EFA40B1B5
:106CF0000520FFF787FFBDE802404FF40030FFF7A3
:106D00007FBA01BD80B54FF48060FFF76EFA30B1F5
:106D10000320FFF777FF4FF48060FFF771FA4FF41D
:106D20000070FFF762FA40B10320FFF76BFFBDE888
:106D300002404FF40070FFF763BA01BD70470000D6
:106D400091F8293003F0FC0302F001021A4381F8A4
:106D500029204FF6FF02818811408180704770B56D
:106D60000446A38A002B1FBF01F124004279C2F31D
:106D70004002002A01D1208B70BD228B056943EAB5
:106D800002430279AA18754D2B4209D04D78ED07C0
:106D900006D5012A04D125884FF6FF3635402580D7
:106DA00023F07F436E4D5B1B0FD05B1E30D03E3B0C
:106DB00054D01B1F35D06B4D5B1B0ED09B1E0CD0CF
:106DC0009B1E04D09B1E08D061E048780DE003684C
:106DD000934202D300F063F853E0037905689D42C3
:106DE00005D26A1C026048198078208270BDC16893
:106DF00041B1954206D2EA1A895C21820168491C98
:106E0000016070BDA0884FF6FF310840A08070BDC2
:106E1000012A40D0022A41D120884FF6FF31084094
:106E20003BE0022A03D1238843F4007307E00368A0
:106E3000D31A032B04D123884FF6FF352B40238030
:106E400003685D1C0560258AC668F5540368D31A7B
:106E5000022B03D1238843F4007323800368D51ADF
:106E6000032D1BD0022D08BF022A17D05A1C026026
:106E7000012D228AC068C25410D120884FF6FF32FB
:106E80001040208001222046BDE8704058E70022D3
:106E90002046FFF755FF00F002F8208070BD2088E3
:106EA00040F40070704710B504462F4AA08A104283
:106EB00004D0A28A4FF6FF331A40A2822B4A104216
:106EC00009D0208840F4807020804FF6FF51A08ABE
:106ED0000840A08210BD264A104203D0A28AC2F305
:106EE0000E02A282234A104204D0A28A4BF6FF73FC
:106EF0001A40A28210F0102F04D0A28A4EF6FF731F
:106F00001A40A2821C4A104204D0A28A4FF2FF7398
:106F10001A40A282194A104204D0A08A4FF6FF629A
:106F20001040A08200222046FFF70AFFFFF7B7FFBC
:106F3000208010BD0749064811E706490448B2E71A
:106F40000F4905480BE70E490348ACE70000000075
:106F500000540040C03800200058004002000002E9
:106F6000010003003C0004000004001000020010B7
:106F70000080001000400010000800100001001008
:106F8000F838002080B5ADF800108DF802308DF88B
:106F900003206946FEF74EF801BD30B587B04FF4C7
:106FA0000040FFF7A0FC01210120FFF7DFFC0121D9
:106FB00045F67D60FFF7E3FC01213A483A4C3B4D32
:106FC000FFF7E6FC032318224FF400712046FFF779
:106FD000D9FF032304224FF480612046FFF7D2FF3C
:106FE0004FF4A060FEF7A0FB31483249324A334CDF
:106FF000416000211170816007210160FDF7D2FF1F
:1070000001208DF80100272000F05AF801208DF8AA
:107010000100252000F054F8002001908DF80900AF
:1070200001A94FF4602003900020049001208DF806
:1070300014002046FEF7BCFD01A92846FEF7B8FD66
:1070400001212046FEF7D2FD01212846FEF7CEFDA4
:107050000120FEF742FE2046FEF7DAFD2846FEF745
:10706000D7FD2046FEF7D9FD0028FAD12846FEF7C5
:10707000D4FD0028F5D12046FEF7D2FD2846FEF7C4
:10708000CFFD2046FEF7D1FD0028FAD12846FEF7B5
:10709000CCFD0028F5D1FFF7B3FB012007B030BDD0
:1070A000000000000740A608000801400028014039
:1070B00010E000E03F19010023ED00E00024014052
:1070C0008DF8000001208DF802008DF8030068465D
:1070D000FEF72FBB3548364A82B0016841F0010106
:1070E0000160416811404160324A0168114001600D
:1070F000016821F480210160416821F4FE014160B2
:107100004FF41F018160002101910091016841F459
:1071100080310160016801F4003100910199491C3E
:107120000191009919B90199B1F5A06FF2D10168E7
:10713000490C01F0010100910099012930D11E494B
:107140000A6842F010020A600A68920892000A6017
:107150000A6842F002020A60416841604168416089
:10716000416841F480614160416821F47C114160D3
:10717000416841F4F8114160016841F0807101609B
:1071800001688901FCD5416889088900416041682E
:1071900041F002014160416801F00C010829FAD177
:1071A00006490748086002B070470000001002401E
:1071B0000000FFF8FFFFF6FE0020024008ED00E0AF
:1071C0000038000880B5ADF800108DF802308DF859
:1071D00003206946FDF72EFF01BD80B5C2681C493A
:1071E0009047012002BD1B48C16170471948C3691F
:1071F0001A001CBF01221847704738B50446154DC8
:1072000005F12000286003232068A86018222020B0
:10721000A8801148E8602169A06889B2FFF7D2FF11
:10722000E168A0680323042289B2FFF7CBFF6069FD
:10723000616883B2206805F12002FFF719FC20681D
:107240000649FFF7C7FC012032BD02487047000025
:10725000374C0008DC390020E7710008ED710008A8
:1072600080B5FFF79AFEE8B1FEF733FED0B1FDF727
:10727000DAFDFDF78BFDFCF7C2FD98B1FDF788FD47
:10728000FFF7BBFF70B1FCF7E3FDFCF763FDFFF711
:10729000DCFFFFF7A2FFFCF7C1FBFCF7BDFBFCF72F
:1072A00025FBFAE7FDF7BCF9002002BD19E050F814
:1072B000041BCB0744BFA9F101035918121F002377
:1072C000042A41F8043BF9D25FEA827C0B4604D5DC
:1072D0004FF0000CA1F800C09B1CD10744BF002157
:1072E000197050F8042B002AE1D1704730B50168BD
:1072F00042688468014401EB5203D20748BF4C4402
:10730000994201D10C3030BD11F9012B11F8015B0C
:10731000002A04F8015B02D5521CF9D1F0E7521E95
:10732000F4D5EDE72D2E2D56455253494F4E54417D
:10733000472D2E2D05001A01110072633100000047
:1073400000000000004170722020382032303139B6
:1073500031323A34323A323410B50749794418316F
:10736000064C7C44163404E00A68081D1144884722
:107370000146A142F8D110BD080000002400000021
:107380002DFFFFFFB43500000805002000000000BD
:107390005DFFFFFFEC0000008C00000000000020FB
:1073A0000120C046002801D0FFF7D6FF0020C046CC
:1073B000C046FFF755FF00F000F800F001B80000EC
:1073C0000746384600F002F8FBE7000080B5C046EB
:1073D000C046024A11001820ABBEFBE7260002009F
:1073E0000148804701480047D5700008F173000844
:1073F000C046C046C046C046FFF7D2FFFFF7FEBFFB
:10740000FFF7FEBFFFF7FEBFFFF7FEBFFFF7FEBFB0
:10741000FFF7FEBFFFF7FEBFFFF7FEBFFFF7FEBFA0
:10742000FFF7FEBFFFF7FEBFFFF7FEBFFFF7FEBF90
:10743000FFF7FEBFFFF7FEBFFFF7FEBFFFF7FEBF80
:10744000FFF7FEBFFFF7FEBFFFF7FEBFFFF7FEBF70
:10745000FFF7FEBFFFF7FEBFFFF7FEBFFFF7FEBF60
:10746000FFF7FEBFFFF7FEBFFFF7FEBFFFF7FEBF50
:10747000FFF7FEBFFFF7FEBFFFF7FEBFFFF7FEBF40
:107480000315460008F000093D6D00083D6D000839
:10749000113DC400015802E40005C037002000017E
:1074A000EA000008F90017010203040102030406C0
:1074B000070809020406086953000869530008D840
:0674C00000010402D600E9
:04000005080073F18B
:00000001FF
